:10000000D7C20000F2C20000F0C20000EEC2000041
:10001000ECC20000EAC20000E8C20000E6C2000034
:10002000E4C20000E2C200000C94B1330C94993495
:100030000C946633DAC20000D8C20000D6C20000B9
:10004000D4C20000D2C20000D0C20000CEC2000064
:10005000CCC200000C948D33C8C20000C6C20000A0
:10006000C4C20000C2C20000C0C20000BEC2000084
:10007000BCC20000BAC20000B8C20000B6C2000094
:10008000B4C20000B2C20000B0C20000AEC20000A4
:10009000ACC20000AAC20000A8C20000A6C20000B4
:1000A000A4C20000A2C20000A0C200000501090213
:1000B000A10185020901A1000509190129081500FE
:1000C0002501950875018102050109300931158165
:1000D000257F95027508810609381581257F9501D0
:1000E00075088106050C0A38021581257F95017572
:1000F000088106C0C005010980A101850319012AF4
:10010000B700150126B700950175108100C0050CD8
:100110000901A101850419012AA002150126A002E6
:10012000950175108100C00660FF0961A101096297
:10013000150026FF00952075088102096315002629
:10014000FF00952075089102C005010906A101056F
:100150000719E029E7150025019508750181029529
:1001600001750881010507190029FF150026FF0008
:100170009506750881000508190129051500250156
:10018000950575019102950175039101C009025B06
:1001900000030100A0FA09040000010301010009A5
:1001A0002111010001224400070581030800010913
:1001B00004010002030000000921110100012222B4
:1001C0000007058203200001070503032000010941
:1001D0000402000103000000092111010001227B3B
:1001E000000705840320000112010002000000083E
:1001F000666148420100010203011C0376006900A8
:1002000061006C003A006600360034006300320082
:1002100062003300630000001403610066005F00A9
:100220006D006100630072006F003800000024035D
:1002300041006C0065007800200046006F006700F8
:1002400065006C00200044006500730069006700D1
:100250006E0000000403090400000000000000001C
:10026000000000000000000000000000000000008E
:100270000000000000000000000000007E0F00D41D
:10028000FFFFFFC700000078000000000000000032
:100290002A2B2800000000000000000000000000E1
:1002A00000000029000000002C1E342021222434EC
:1002B0002627252E362D3738271E1F2021222324BE
:1002C00025263333362E37381F0405060708090A5A
:1002D0000B0C0D0E0F101112131415161718191AF6
:1002E0001B1C1D2F3130232D350405060708090A74
:1002F0000B0C0D0E0F101112131415161718191AD6
:100300001B1C1D2F3130354C27001E001F00200004
:10031000210022002300240000010101010101014C
:1003200001010202020202020202020303030303AA
:100330000303030404040404040405050505050679
:100340000606060607070707070808080809090937
:10035000090A0A0A0B0B0B0C0C0C0D0D0D0E0E0EE0
:100360000F0F0F1010111111121213131414151571
:1003700016161717181819191A1A1B1B1C1D1D1EE3
:100380001E1F202021222223242425262627282937
:10039000292A2B2C2D2D2E2F303132323334353665
:1003A0003738393A3B3C3D3E3F4041424344454665
:1003B0004748494A4C4D4E4F505153545556585941
:1003C0005A5B5D5E5F616264656668696B6C6D6FE8
:1003D0007072737577787A7B7D7E8082838587885B
:1003E0008A8C8E8F91939596989A9C9EA0A2A3A595
:1003F000A7A9ABADAFB1B3B5B7BABCBEC0C2C4C696
:10040000C9CBCDCFD1D4D6D8DBDDDFE2E4E7E9EB51
:10041000EEF0F3F5F8FAFDFFFD377A585A000004C4
:10042000E6D6B4460200210116000000742FE5A3B1
:10043000E001F100CA5D003D8889A654750A36E1E5
:1004400082AEFA7A1AA6FCA2ED4946C6C65E71775C
:10045000BBD05FB821B59A6DEC0545EFCE6A71C08F
:1004600023FEA9DB302F7EF37E4BD3DE0DD807BDF4
:10047000A97FBF12867646530FBEC02312257E8AFF
:10048000735C10FB63BFBB7E7E651B74302A494AD8
:1004900002A006F2025DD0E16D5A8DFB3B16B02141
:1004A00003E41C6C11552536B21EA43944D3C60F83
:1004B000FB197AD044A6FA13C98823866FBB78A0AB
:1004C0001087B1CDC54A68A114E670651F94DADCC7
:1004D0004EA7EDA017173D98659FFE5FC13F8D5455
:1004E0008F0FAC683D536E567ABF53520212708A1A
:1004F00034953D97637E677CBAED492CD591A31B5B
:10050000CE000000BCE6C3271E5C80E90001E601C6
:10051000F203000087650110B1C467FB0200000010
:100520000004595A000000000100270002000100E9
:100530000300020005000300060004000700050098
:1005400008000600090007000A0008000B00090067
:100550000C000A000D000B000E000C0010000D0036
:1005600011000E0012000F00130010001400110003
:1005700015001200160013001700140018001600D2
:10058000190017001A0018001B0019001C001A009F
:100590001D001E001E001F001F0020002000210063
:1005A00027002200290023002B001B002C001D0027
:1005B00011241FBECFEFDAE0DEBFCDBF24E0AEEDE9
:1005C000B1E001C01D92A836B207E1F711E0A0E04A
:1005D000B1E0E0EAFEE602C005900D92AE3DB10743
:1005E000D9F70E94412C0C949B360ACD9C01915066
:1005F0009F31B8F4832F817034FF0BC08295807FC8
:1006000031FD806232FD806433FD8068FB01099515
:10061000089531FD826032FD846033FFF7CF88603A
:10062000F5CF80E0F3CF982F92959F7061F420E092
:10063000982F892F8695869511F02E5F982F892FF8
:100640008695820F089524E0F4CF80936404089582
:10065000CF93C82FE8DF80939B03C0936504CF91AD
:10066000089521E001C0220F8A95EAF78091650480
:10067000822BEECF21E001C0220F8A95EAF7822F6C
:100680008095909165048923E3CF911120C0883033
:10069000F0F491E001C0990F8A95EAF7E8E9F3E0F8
:1006A00040E050E070E08191DF019B01042E02C028
:1006B000369527950A94E2F72695220B28272923B9
:1006C00028272E934F5F5F4F4330510561F7089500
:1006D00091111CC08830C0F4E8E9F3E040E050E03C
:1006E000219130E0082E02C0369527950A94E2F752
:1006F0002170042E01C0220F0A94EAF7922B4F5F5B
:100700005F4F4330510561F7892F089590E0FCCF8A
:100710009091650421E030E0F90101C0EE0F8A9567
:10072000EAF7D90101C0AA0F6A95EAF7EA2B01C0DE
:10073000220F4A95EAF7892F8E23E81303C0892FE9
:10074000822B86CF2095822F8923FBCFE091460311
:1007500090914503E91302C080E008959F0159E09C
:10076000E59FF0011124E95BFC4F5181561306C04F
:100770005081581303C05581541305C02F5F3F4F5C
:10078000F901E770E7CF81E0089580914603209159
:100790004503281301C0089501968770FACF909100
:1007A000B003809589238093B003282F277081F4AC
:1007B000891771F09091670492FF0AC0869586951B
:1007C000869558DF1092B0031092B1031092B203D5
:1007D00008958095982F8091AD0389238093AD0370
:1007E00008958091AC03811531F01092AC03109202
:1007F000B3031092B4030895803E9105D1F1C8F47B
:100800008133910509F481C048F48932910509F4D6
:1008100071C08A32910509F47FC00895893391052A
:10082000E1F082389105C9F08533910509F45DC086
:100830000895843E9105D1F148F4823E910531F14D
:10084000833E910541F181EE90E00895863E910549
:10085000C1F1873E9105F1F108952091660423705E
:1008600009F064C02091670423FF14C089E290E07E
:1008700008952091660420FD45C03091670430FF43
:1008800009C024FD24C083EE90E008952091660401
:1008900022FDF7CF08952091660422FD44C03091D7
:1008A000670430FD43C024FFF5CF11C020916704D9
:1008B00021FFF0CF8091660484FD09C087EE90E0AF
:1008C00008952091660423FFE5CF24FFF7CF80E051
:1008D00090E008952091660423FD2BC030916704B9
:1008E00031FFE1CF84EE90E008952091660425FF6A
:1008F000D1CFBCCF2091660425FD1EC02091670496
:1009000023FFC8CF89E390E008952091660426FF75
:10091000C1CF8AE290E008952091660426FFBACF05
:1009200081E390E0089582EE90E0089580EE90E0FB
:10093000089586EE90E0089585E390E00895909103
:10094000660492FF10C041E0282F2471243009F082
:1009500040E031E0282F2871283009F030E04317BB
:1009600011F02CE0822793FF10C041E0282F247162
:10097000243109F040E031E0282F2871283109F0B6
:1009800030E0431711F02CE082273091670430FFEC
:1009900010C051E0282F2171213009F050E041E0D2
:1009A000282F2871283009F040E0541711F029E071
:1009B000822731FF10C041E0282F2171213109F039
:1009C00040E031E0282F2871283109F030E043174A
:1009D00011F029E0822794FD877E08950F931F93DD
:1009E000CF93DF9309DFEC01D23508F04DC0D0354D
:1009F00008F0C3C0C03ED10530F5CD3CD10508F0AC
:100A00009AC0C83AD10578F4C53AD10508F090C02B
:100A1000C130D10599F1CE010497813A910570F169
:100A2000C0E0D0E02BC0CE01885A91094B97C0F7A7
:100A3000C85AD0E0CC0FDD1FCE58DE4F0990D881C8
:100A4000C02DD4641BC0D03490F4D03208F0A8C0BC
:100A5000C83ED10598F0CE0191509F3108F78D2FF7
:100A60006EDF082F8C2F90E0C7DE902B54C08C2FA8
:100A700090E0C2DEDF70C82FD92BD06ACE01DF91A3
:100A8000CF911F910F910895C03882E5D807B8F52E
:100A9000C03682E5D80708F056C0C03482E5D807D2
:100AA000C8F4C03282E5D80708F047C08C2F86957D
:100AB000869520E2829FC0011124C37021E030E0BE
:100AC00002C0220F331FCA95E2F7E901C82BD92BC8
:100AD000DD68D4CF8C2F86958695877020E2829F23
:100AE000C0011124C37021E030E002C0220F331F87
:100AF000CA95E2F7E901C82BD92BDC68BFCFC03C0F
:100B000082E5D80750F48C2F8F71C03AD24580F51A
:100B1000982F84EF906AEC01B1CFCE01805C9245B2
:100B2000809708F07DCFDC2FDF71C0EFD06AA6CFB1
:100B3000A497D064A3CFD065A1CF8C2F8F71D82F6D
:100B4000C1EFD06A9BCF8C2F86958695877020E267
:100B5000829FC0011124C37021E030E002C0220F47
:100B6000331FCA95E2F7E901C82BD92BDA6886CF83
:100B7000E6DEC0E0D82FD06281CF8C2F8F71DFDE10
:100B800093E0CC0FDD1F9A95E1F7DF70282F84FFEB
:100B900004C090E1899F90011124C22FD0696ECFCB
:100BA0008D2F8F71CCDE082F8C2F90E025DE902BBF
:100BB000EC01E1CF80E00895CF92DF92EF92FF92B7
:100BC0001F93CF93DF93462F172FE82FF0E0E85EB7
:100BD000FC4F71110CC0E4918E2F7E2F6E2FDF9190
:100BE000CF911F91FF90EF90DF90CF900895F491F7
:100BF000EF2F86E0689FE00111242FEF30E0CE0157
:100C0000B9010E94E834DB01CA01880F991F65E52C
:100C10006A9FA0016B9F500D1124841B482F440F25
:100C2000480FC901811B9109F89F7001F99FF00CD1
:100C300011248F2D149FB0011124672F70E06901DA
:100C4000C61AD70AB601F69F6001F79FD00C11248F
:100C5000A330B10549F1B901641B7109AB01149FBF
:100C6000B001159F700D1124672F70E0261B370B04
:100C7000F29FA001F39F500D1124752FCC3FD3405C
:100C800050F4A130B105A1F0129709F0A7CFEF2DD4
:100C9000852F7F2FA3CFA430B10569F0169709F4F3
:100CA0009DCF7F2D8D2D9ACF7D2DEF2D8F2F96CF20
:100CB0007F2FED2D93CFE52F7F2DF8CF282F269F67
:100CC000020E20E0211D1124822F08959C0180E056
:100CD00090E0269F020E811D369F800D911D1124EC
:100CE000830F911D0895AC018230910508F4089599
:100CF0009FEF413E8EE1580740F49A0195E036950A
:100D000027959A95E1F7922F985F61E0262F290F9A
:100D10003327331F35952795822F229FF001239F7C
:100D2000F00DF00D11244E175F0738F4922F9150FB
:100D3000961760F7862F815008952F3FE9F3622FB1
:100D40006F5FF6CF409112015091130125E038E01A
:100D5000429FC001439F900D529F900D1124875ECA
:100D6000994C8093120190931301890F0895CF93AA
:100D7000C82FE8DF8C9FC0011124892FCF910895DF
:100D8000982FE82F96FDE0958E2F8F7096FD8F5F40
:100D9000E695E695E695E670F0E0EE5BFE4F218184
:100DA000289F202D812D112422952F708295807FE0
:100DB000282B8081820F97FD819580580895FC0132
:100DC0009B01009719F4832F80780895AC0197FF59
:100DD00004C044275527481B590BB901640F751FE0
:100DE00037FD10C0241B350BA0E23A9F902D2A9F9F
:100DF000802D912911240E94FC3480E2861BF7FD8E
:100E000081950895CB0160E2969F902D869F802D5D
:100E100091291124421B530BBA010E94FC3480E635
:100E2000EDCF1F93CF93DF93EB01182F822F869581
:100E3000A7DF805887FD8195612F880F3FDFBE01B6
:100E4000DF91CF911F9108950F931F93CF93DF935D
:100E5000162FD72F082FC22FE42FF0E0EE0FFF1F21
:100E6000EE5AFE4F64EE808129DF4D2F50E0282F8F
:100E700030E0245E3F4F6C2F70E0C9018C1B91095C
:100E80001AF4CB01821B930B23E0880F991F2A953C
:100E9000E1F7481B590BCA0157FD80E06D2F0EDFAB
:100EA000612F782F802FDF91CF911F910F9108959F
:100EB0000F931F93CF93DF93162F072FD82FC22F97
:100EC000E42FF0E0EE0FFF1FEE5AFE4F64EE80813C
:100ED000F5DE4D2F50E0282F30E0245E3F4F6C2F81
:100EE00070E0C9018C1B91091AF4CB01821B930B92
:100EF00023E0880F991F2A95E1F7481B590BCA0177
:100F000057FD80E06D2FDADE612F702FDF91CF91DA
:100F10001F910F9108950F931F93CF93DF93D62FB7
:100F2000C72F182FC901272F201B022FBA0147DF17
:100F3000982F990F990F891B6C2F800FBFDE6D2F93
:100F4000782F812FDF91CF911F910F9108950F93EB
:100F50001F93CF93DF93D62F172FC82FC9012C2FA4
:100F6000201B022FBA012BDF982F990F990F891B95
:100F70006C2F800FA3DE6D2F712FDF91CF911F910A
:100F80000F910895EF920F931F93CF93DF93D62F76
:100F9000C72F182FC9010E19070FBA0110DF6C2FC8
:100FA000081B802F8BDE6D2F782F812FDF91CF9143
:100FB0001F910F91EF900895EF920F931F93CF938E
:100FC000DF93D62F172FC82FC9010E190C0FBA01A6
:100FD000F6DE6C2F081B802F71DE6D2F712FDF91D5
:100FE000CF911F910F91EF900895622F0895E42FF4
:100FF000F0E0EE0FFF1FEE5AFE4F6081621B089576
:101000000F931F93022F50E0FA01EE0FFF1FE65BD4
:10101000FE4FE185E350E7FDE195440F551F4E5A21
:101020005E4FDA012C91201B310B2E0F620F1F91A6
:101030000F910895EF920F93972F202F30E0B90171
:10104000660F771F620F731F759567956E0D792F69
:101050000F91EF9008950F93CF93DF93C72FD82F61
:1010600047FD4195229FC001239F900D900D1124B3
:101070004402800D911D112436DE682F660F680F23
:10108000600F7C2F8D2FDF91CF910F9108950F93DB
:10109000CF93DF93C72FD82FC901BA0190DE800FFD
:1010A000682F7C2F8D2FDF91CF910F910895EF92B4
:1010B0000F93CF93DF93C72FD82FC9010E19BA0111
:1010C0007EDE602F681B7C2F8D2FDF91CF910F91DB
:1010D000EF9008950F931F93A02FB0E0FD01EE0F46
:1010E000FF1FE65BFE4F01850350110B2003F0014B
:1010F000219FF00D1124AA0FBB1FAE5ABE4F2C9199
:101100004203A00111244E0F5F1F12F441585F4F9C
:10111000440F452F441F550B640F1F910F910895E5
:101120000F931F93A02FB0E0FD01EE0FFF1FE65BB2
:10113000FE4F01850350110B2003F001219FF00D9C
:101140001124AA0FBB1FAE5ABE4F2C914203A0011F
:1011500011244E0F5F1F12F4415C5F4F96E05595CE
:1011600047959A95E1F7640F1F910F9108950F939A
:101170001F93E02FF0E0DF01AA0FBB1FAE5ABE4F56
:101180009C9197FD9195EE0FFF1FE65BFE4FA185A9
:10119000A350BB0B8D012003F001219FF00D112402
:1011A00028E330E0291B310997FD33954203D00134
:1011B000439FB00D1124EA0FFB1F9F01220F331F25
:1011C0002E0F3F1F12F421583F4F220F232F221FB3
:1011D000330B620F1F910F91089550E0FA01EE0F4B
:1011E000FF1FE65BFE4F3185440F551F4E5A5E4F81
:1011F000FA019081931B692F660F690F343010F04C
:10120000620F0895621B08951F93CF93DF93EB0144
:10121000182F822F8695B4DD805887FD81956CE06C
:10122000880F4CDD6C2F680F7D2F812FDF91CF91C0
:101230001F9108950F931F93CF93DF93D62F172FEE
:10124000082FC42F822F9CDDEC2FF0E0EE0FFF1F44
:10125000EE5AFE4F90819058890F87FD81956CE082
:10126000880F2CDD6D2F680F712F802FDF91CF91AC
:101270001F910F9108951F93CF93DF93EB01182FC8
:10128000E42FF0E0EE0FFF1FEE5AFE4F8081821B2D
:1012900087FD819568E112DD6C2F680F7D2F812F0E
:1012A000DF91CF911F91089520912B0330E1230FFF
:1012B00008F42FEF60E1822F90E008DDBC0188EB9D
:1012C0009BE00E94E83480E090E00895CF93DF93A4
:1012D000EB01682F842F8095F1DCBE01DF91CF9167
:1012E00008951F93CF93DF93EB01182F60E4842FB1
:1012F0008095E4DC6C2F680F7D2F812FDF91CF91DB
:101300001F910895EF92FF920F939701201B3109CF
:10131000A90151114FEF342F3095282F230F08F4D6
:101320002FEF822F640F0F91FF90EF900895EF92AF
:10133000FF920F939701201B310931112FEF209558
:10134000382F320F08F43FEF832F0F91FF90EF906B
:1013500008951F93CF93DF93EB01182F60912B0318
:101360006695669566958BE391E0489F9001499F4D
:10137000300D11248091A5029091A602820F931F37
:10138000A5DCFEDC805887FD8195612F880F96DCF7
:10139000BE01DF91CF911F9108959091A902982BE2
:1013A0009093A902089582C30895A0E0B0E0EBED08
:1013B000F9E00C943E36C82FD0E0FE01E65BFE4F0C
:1013C000808D90911001892329F100912903D090FB
:1013D0002A0310912803E12EF12C83E0C8DC282F8A
:1013E000C7018C549F4F68E671E00E94FC348E194F
:1013F0009F090AF403969595879595958795612F92
:10140000289F600D1124702F8D2DD6DB472F282F9C
:10141000CE01C9DFCDB7DEB7E7E00C945A361F9393
:10142000CF93DF93C82FD0E0FE01E65BFE4F808DA7
:1014300090911001892371F085DC182F80E897DCEA
:101440008158782F612F80912A03B6DB472F282FF0
:10145000CE01A9DFDF91CF911F910895FF920F93E5
:101460001F93CF93DF93C82FD0E0FE01E65BFE4FC2
:10147000808D909110018923F1F060912B03669586
:10148000669566958091A5029091A6021FDC009159
:101490002803F090290310912A0372DC805887FDFD
:1014A0008195612F880F0ADC602F7F2D85DB472F08
:1014B000282FCE0178DFCDB7DEB7E5E00C945C369F
:1014C00000C30895880F982F9E5F993008F098E028
:1014D00008956F927F928F929F92AF92BF92CF9218
:1014E000DF92EF920F931F93CF93DF933C01809194
:1014F0000F01E8DFC82F192F60912B0366958091AB
:10150000A5029091A602E2DBE82ED0E0CE01880F82
:10151000991F865B9E4F6C011C1709F090F481E0C7
:10152000183008F080E0DF91CF911F910F91EF907C
:10153000DF90CF90BF90AF909F908F907F906F90F3
:101540000895FE01E65BFE4F808D90911001892386
:1015500031F1F6019085292F30E049018185282F4E
:101560002350330B5901AA9C9001AB9C300D300DD8
:101570001124999F200D311D1124C901B4DB082FBE
:10158000609128037091290380912A039501A40199
:10159000F301099511DB472F282FCE0104DF82E0EC
:1015A000C80ED11C2196B8CFA0E0B0E0EAEDFAE079
:1015B0000C943D366C0180910F0184DFC82F192FE8
:1015C00060912B0366958091A5029091A6027EDB27
:1015D000082FD0E0CE01880F991F865B9E4F7C01BB
:1015E0001C1709F048F481E0183008F080E0CDB70E
:1015F000DEB7E8E00C945936FE01E65BFE4F808DC5
:1016000090911001892399F0F70121852350330B24
:10161000408550E0609128037091290380912A034E
:10162000F6010995C9DA472F282FCE01BCDE82E0EA
:10163000E80EF11C2196D4CFEF92FF920F931F93E7
:10164000CF93DF937C0180910F013CDFC82F192FCE
:1016500060912B036695669521E0620F08F46FEFA9
:101660008091A5029091A60231DB082FD0E0C1172E
:1016700048F081E0183008F080E0CDB7DEB7E6E052
:101680000C945B36FE01E65BFE4F808D909110015D
:10169000892379F0609128037091290380912A03AE
:1016A000202F4C2FF701099587DA472F282FCE01DD
:1016B0007ADE2196DCCFAF92BF92DF92EF92FF925B
:1016C0000F931F93CF93DF935C0180910F01FADE9C
:1016D000C82F192F60912B03669566958091A502FE
:1016E0009091A602F3DAE82E805C4ADB8058F82E4F
:1016F0008E2D46DB8058D82ED0E0C11770F081E0E7
:10170000183008F080E0DF91CF911F910F91FF908A
:10171000EF90DF90BF90AF900895FE01E65BFE4F23
:10172000808D90911001892381F060912803709140
:10173000290380912A030C2F2D2D4F2DF50109959A
:101740003BDA472F282FCE012EDE2196D6CFAF923F
:10175000BF92DF92EF92FF920F931F93CF93DF938D
:101760005C0180910F01AEDEC82FD92E20912B0392
:1017700031E0230F08F42FEF30E040E050E0CA01E1
:101780006FEF7FEF0E9407368901D0E0F22EE12E45
:101790002C2FCD1578F081E09D2D983008F080E059
:1017A000DF91CF911F910F91FF90EF90DF90BF904D
:1017B000AF900895FE01E65BFE4F808D9091100181
:1017C0008923F9F04091AA024150542F550F550B2F
:1017D00047FF19C08F2D9E2D60912B0321E0620FD2
:1017E00008F46FEF73DAAC0160912803709129035C
:1017F00080912A03F5010995DFD9472F282FCE01C3
:10180000D2DD2196C5CFFA01E655FD4F81898213BD
:101810000AC0FA01EE0FFF1FE655FD4F818D928D34
:1018200080179107C8F241505109D2CFAAE0B0E029
:10183000ECE1FCE00C943336582E6B837C83809172
:101840000F0140DE9A834090AA0290E08F831886B1
:10185000880F991F865B9E4F6C015D821E828A8174
:101860009F81981748F081E09A81983008F080E0D5
:101870002A96E2E10C944F36EF81F885E65BFE4F45
:10188000808D909110018923D1F0209028038091C0
:10189000290389838D819E8185559D4F3C01152D9E
:1018A000312C1415A8F060912A03832D07DA622DDC
:1018B000798182D9472F282F8F81988574DD8F8178
:1018C000988501968F83988782E0C80ED11CC7CF78
:1018D000F30181913F01F601A084A81ABB0881841D
:1018E000F3018781881A9908AA9C9001AB9C300D5E
:1018F000300D1124889CC001899C900D900D1124FD
:10190000820F931FF0D9082F60912B0321E0620F03
:1019100008F46FEFF301EE0FFF1FEA5AF2408589DA
:101920009689D4D97C019401A501622D7981832DFA
:10193000EB81FC810995262E7983382E1F5FB1CF6C
:101940008091270391E089278093270310920E014D
:1019500081E023CD80912703837011F410920E0152
:10196000809127038C7F8160809327030895809165
:101970002703837011F010920E01809127038C7F52
:1019800080932703089590912703937091F0811518
:1019900089F0883288F48F73880F880F982F2091F0
:1019A00027032370922B9093270310920E01862F0A
:1019B000F4CC089581E0F0CF87E2EECF8091270349
:1019C000869586958F5F883208F081E061E0DBCFF5
:1019D0008091270386958695815009F487E261E01E
:1019E000D2CF90912703937041F0809328036093A6
:1019F000290340932A03822FD0CC0895E7E2F3E035
:101A0000818190E021E0438162810896EACFE7E29C
:101A1000F3E0818121E0438162818850990BE1CF1D
:101A2000E7E2F3E0628120E1620F08F46FEF818169
:101A300021E0438190E0D5CFE7E2F3E0628120E14D
:101A4000621B08F460E0818121E0438190E0C9CF0E
:101A5000E7E2F3E0438120E1420F08F44FEF818198
:101A600021E0628190E0BDCFE7E2F3E0438120E135
:101A7000421B08F440E0818121E0628190E0B1CF17
:101A800020912B0330E1230F08F42FEF20932B0339
:101A900081E083CC20912B0330E1231B08F420E06C
:101AA00020932B0381E079CC269A0895FC01EE0F58
:101AB000FF1FE80FF91FEA5FFD4F61834083228318
:101AC0000895FF920F931F93CF93DF93182F062F44
:101AD000F42EC0E0D0E02F2D402F612FCE01E6DFA5
:101AE0002196C830D105B9F7CDB7DEB7E5E00C9443
:101AF0005C361092F5031092F603E5EBF3E0858176
:101B0000811102C014821682379683E0ED3EF807F9
:101B1000B1F70895DC016091F8038091F703962FE7
:101B2000891301C00895292F30E0F901EE0FFF1F3E
:101B3000E351FC4F408151814A175B0799F487E0DC
:101B40008A9FA0018B9F500D11244B545C4F81E064
:101B5000FA0184839613E6CF2F5F3F4F23702093C3
:101B6000F80308952395922F9370DACF0F931F9364
:101B7000CF9301E0082E01C0000F0A94EAF7C0914C
:101B8000AB039C2F9023B1F49091B003969596955A
:101B90009695891306C01092B0031092B10310926B
:101BA000B2030E943103C027C093AB03CF911F91B2
:101BB0000F9108950E943A03F6CF382F25EB320398
:101BC000C001112497FF04C080589109892F0895FE
:101BD00080589F4FFBCF80919E0380FD14C081FDF4
:101BE00014C082FD16C080919D03811581F08E3155
:101BF00080F420E5829FC00111246EE170E00E9414
:101C0000FC34862F089584E1089588E2089588E0E1
:101C1000089580E5089580919E0380FD17C081FDA1
:101C200017C082FD19C080919C03811599F08832FC
:101C300098F428E0829FC001112468E270E00E94BD
:101C4000FC346115710551F0862F089562E0FCCFD8
:101C500064E0FACF61E0F8CF68E0F6CF81E0089564
:101C6000E0913B03F0913C03309739F00190F08113
:101C7000E02D309711F00995089580E00895A3E0D4
:101C8000B0E0E5E4FEE00C9443362091010230918F
:101C9000020228173907B1F08093010290930202E3
:101CA000E0913B03F0913C03309761F00084F185B3
:101CB000E02D309739F023E029838A839B83CE017E
:101CC000019609952396E2E00C945F36A3E0B0E01C
:101CD000ECE6FEE00C9443362091FF0130910002C7
:101CE00028173907B1F08093FF0190930002E0912B
:101CF0003B03F0913C03309761F00084F185E02DC7
:101D0000309739F024E029838A839B83CE010196A2
:101D100009952396E2E00C945F369C01FC01329613
:101D200080E09FEF4081461759F031969F3F19F4AC
:101D3000411101C0982F8F5F8630A1F79F3F09F4B2
:101D40000895290F311D97FD3A95F9016283089591
:101D5000FC01329608962191261302C0DF011E92E3
:101D6000E817F907C1F708958091150108952FB775
:101D7000F8948091FB019091FC01A091FD01B0913C
:101D8000FE012FBF08959091670492FF0FC0982F16
:101D9000990F990F990F962B9093B0030E943103DE
:101DA000E6DF8093B1039093B20308950C9431035E
:101DB0009091AC03292F282359F080958923809393
:101DC000AC0390E08111D3DF8093B3039093B4030D
:101DD0000895CDDF9C019091A1038091A203982BDF
:101DE00021F020930A0330930B039091A303809179
:101DF000A403982B21F02093080330930903E0916A
:101E00003B03F0913C03309759F00680F781E02DB9
:101E1000309731F082E080939F038FE993E009953A
:101E20000895611509F440C0E82FED5CE33148F4F2
:101E3000F0E0E356F94C0C940F35CDDE819580939C
:101E4000A203C7CFC8DEFBCFC6DE81958093A10376
:101E5000F8CFC1DEFBCFDFDE8093A303F2CFDBDE62
:101E60008195FACFD8DE81958093A403EACFD3DEA3
:101E7000FBCF815D990B21E001C0220F8A95EAF723
:101E80008091A003822B8093A003DBCF80919E03DF
:101E9000816080939E03D5CF80919E038260F9CFAD
:101EA00080919E038460F5CF4091A1038D3C59F44D
:101EB0008091A20387FF0DC01092A203411559F42F
:101EC00010929D0308C08E3C81F48091A2031816E5
:101ED0009CF3411581F08091A3039091A403892B79
:101EE00009F0AFCF10929C03ACCF8F3C41F447FF79
:101EF000F0CF1092A1038091A2038115E0CF803D25
:101F000019F41416B4F3E5CF9091A303893D29F495
:101F10001916FCF61092A303DCCF8A3D19F497FF43
:101F2000D8CFF8CF9091A4038B3D29F497FFD1CF60
:101F30001092A403CECF8C3D19F41916CCF3C9CF5F
:101F4000982F915D983078F4815D990B21E001C064
:101F5000220F8A95EAF7822F80959091A00389231A
:101F60008093A003B6CF8D3D31F480919E038E7F88
:101F700080939E03AECF8E3D21F480919E038D7F92
:101F8000F7CF8F3D09F0A5CF80919E038B7FF0CFD7
:101F90002FB7F8946091FB017091FC018091FD01D5
:101FA0009091FE012FBF089587E797E7809300087F
:101FB0009093010888E19AE00FB6F894A895809371
:101FC00060000FBE90936000FFCF0895FC01209148
:101FD000F1013091F2012617370748F061157105BC
:101FE00029F49091E8009E779093E8009B0190E09F
:101FF0002115310541F4911106C08091E80082FF5E
:1020000032C080E0089580912F038115C1F18530A1
:10201000C1F18091E80083FD30C08091E80082FD2D
:10202000ECCF8091E80080FFE3CF8091F3004091F6
:10203000F200582F2115310519F04830510558F09C
:1020400091E04830510509F090E04091E8004E776A
:102050004093E800CDCF81918093F1002150310968
:102060004F5F5F4FE7CF80912F03811541F085309F
:1020700041F08091E80083FFC0CF81E0089582E0C5
:10208000089583E00895982F9093E900891771F0DF
:102090007091EC002091ED005091F00021FD09C0FD
:1020A0009F5F973089F78093E9000895762F242F5A
:1020B00050E03091EB003E7F3093EB003091ED002B
:1020C0003D7F3093ED003091EB0031603093EB00B9
:1020D0007093EC002093ED005093F0002091EE00FF
:1020E00027FDDECF08958091EB0187FF13C080911B
:1020F000E80082FF06C08091E8008B778093E800BB
:10210000089580912F038111F2CF089580912F03BC
:102110008115D9F38091E80080FFF8CF8091E80025
:102120008E77ECCF2091E4003091E50095E6A9018F
:102130002091EC00822F817020FF06C08091E80082
:1021400080FF06C080E008952091E80022FD1AC0BB
:1021500080912F03811589F0853089F08091EB0003
:1021600085FD0FC02091E4003091E5004217530730
:10217000F9F29150E1F684E0089582E0089583E059
:10218000089581E00895CF93DF93C8EDD0E0888172
:102190008F7E8883E7EDF0E080818160808384E03A
:1021A00082BF81E08093EA0188818E7F8883E2EE9E
:1021B00010821092DA00A1EEB0E01C9288818F7735
:1021C000888388818068888388818F7D888319BC13
:1021D00010922F031092E9011092D4021092E8019C
:1021E000A0EE8C918B7F8C9388818160888342E004
:1021F00060E080E048DFA1EEB0E08C918E7F8C93B0
:10220000E2EEF0E08081816080838081886080835D
:10221000E0EE80818E7F8083888180618883DF917A
:10222000CF910895E8EDF0E080818E7F8083109259
:10223000E2001092DA001092E100A0EEB0E08C9182
:1022400081608C9380818F77808319BCA7ED8C91FE
:102250008E7F8C9380818F7E80831092EA01089517
:1022600035B13F7B25B120644FB7F89486E092E00A
:10227000FC010196508168E025B9000000C057FFBD
:1022800035B9550F000000C000C000C035B900C00E
:102290006A9591F752E08E31950751F74FBF8FE560
:1022A00094E00197F1F700C0000008950F931F9389
:1022B000CF93DF93EB018A0190912F03943059F56E
:1022C0008093E9008FEF9091E80095FD06C095EDB1
:1022D0009A95F1F700008150B1F78091E80085FFF1
:1022E0001AC020DF811112C08091E80085FD06C070
:1022F0008091E8008E778093E800F3CF8881809307
:10230000F1000150104011F02196EECF8091E800CD
:102310008E778093E800DF91CF911F910F91089500
:10232000603229F440E250E0BC0182E0BFCF089562
:10233000CF93DF93EC0148E050E0BC0181E0B6DFD1
:1023400088E0FE01A3EFB1E001900D928A95E1F7DC
:10235000DF91CF91089546E050E0BC0184E0A6CF24
:1023600043E050E0BC0184E0A1CF9091670492FB70
:10237000222720F9281779F080FB92F990936704BF
:10238000609166047091670484E090E00E94EC35EF
:1023900082E00C94CF0308951F93CF93DF93122F05
:1023A0008430B0F4611114C0483090F490E1899FFA
:1023B000E0011124C40FD11DC40FD11D632FCE0124
:1023C00089960E94D235612FCE018A960E94D2351D
:1023D000DF91CF911F910895CF93C091AD0380916C
:1023E000AF03C82B8091AC038115F1F0C0DC2091C4
:1023F000B3033091B403821B930B8838934110F0E0
:102400000E94F1038091AC03C82B20E082EE91E0A2
:10241000FC013081019631112F5F31E0883E930736
:10242000B9F721110E94F103C093E00148E050E0A8
:102430006DE373E080EE91E00E947835892BB9F06E
:1024400088E0E0EEF1E0ADE3B3E001900D928A9513
:10245000E1F7E0913B03F0913C03309741F00280BB
:10246000F381E02D309719F080EE91E00995CF913E
:1024700008951092AD03E2EEF1E086E011928A95A4
:10248000E9F780E090E0FBDB80E090E01FDC109259
:10249000AF03A2DFEFE9F3E086E011928A95E9F756
:1024A00010929D0310929C0310929E0392CCE1DF48
:1024B0008FEF94E32CE0815090402040E1F700C082
:1024C000000088E19AE00FB6F894A8958093600028
:1024D0000FBE90936000FFCFAAE2B0E0E2E7F2E126
:1024E0000C9442368BEE91E0FC0101962091F100B4
:1024F000208321E0833F9207B9F78091EC01893076
:1025000009F457C0C8F4823009F4B3C0833009F429
:1025100083C0813081F18091E80083FFE7C0809122
:10252000EB019091EC019A3008F0E0C0E92FF0E067
:10253000E055F94C0C940F358A3009F48AC08B3081
:1025400051F78091EB01813231F78091EF01909149
:10255000F001892B01F78091E800877F8093E800E4
:10256000C2DD81E09091ED01911101C080E0809386
:1025700016017FDFD0CF8091EB01813A61F6809127
:10258000E800877F8093E8008091EF019091F0014F
:10259000892B59F060E080E090E070E017DD8091D9
:1025A000E8008B778093E800B6CF68E083EF91E096
:1025B000F4CF8091EB01813209F0ADCF8091EF0132
:1025C0009091F0018D7F892B09F0A5CF8091E800D3
:1025D000877F8093E8008091E80082FF18C02091F7
:1025E000F3008091F200922F029731F48091F10074
:1025F000813011F0863021F48091F1008093150133
:102600008091E8008B778093E8006DDD84CF809126
:102610002F038111E0CF7FCF8091EB01813A09F048
:102620007ACF8091EF019091F001892B09F073CF5F
:102630008091E800877F8093E8008091E80080FF28
:10264000FCCF809116018093F1008091E8008E7795
:10265000DACF8091EB01813209F05DCF8091E80003
:10266000877F8093E8003FDD8091EE018093140125
:1026700052CF8091EB01813A09F04DCF8091E80073
:10268000877F8093E8008091E80080FFFCCF8091F5
:102690001401D9CF803889F0823841F58091EF015B
:1026A0008F70873018F58093E9008091EB0085FBEF
:1026B000882780F91092E90006C08091D402880F23
:1026C0009091E801892B9091E800977F9093E80022
:1026D0008093F1001092F1008091E8008E7723C082
:1026E000811116C08091ED01813009F18091E800DF
:1026F00083FF0AC08091E800877F8093E800809183
:10270000EB0080628093EB00AA96E3E00C945E36C7
:10271000823061F78091ED01811579F01092E90026
:102720008091E800877F8093E800DDDCDFCF933085
:1027300009F080E08093D402F1CF8091EF018F7097
:10274000282F2150263090F68093E9002091EB004D
:1027500020FFE4CF933031F48091EB0080628093CE
:10276000EB00DCCF9091EB0090619093EB0021E0C7
:1027700001C0220F8A95EAF72093EA001092EA003E
:102780008091EB008860EBCF8111B0CF8091ED019B
:102790008F77182F8091E3008078812B8093E3005E
:1027A0008091E800877F8093E8009DDC8091E800BD
:1027B00080FFFCCF8091E30080688093E30083E09A
:1027C000111101C082E080932F0390CF8058823096
:1027D00008F08CCF8091ED019091EE018C3D23E0CB
:1027E000920789F583E08A838AE289834FB7F89458
:1027F000DE01139620E03EE051E2E32FF0E050933B
:102800005700849120FF03C082958F703F5F8F70C7
:102810008A30B8F0895C8D931D922F5F243169F75F
:102820004FBF8091E800877F8093E8006AE270E004
:10283000CE010196CBDB8091E8008B778093E80096
:1028400055CF805DE8CF292F30E02330310509F4E2
:102850004EC078F52130310509F486C08BE590E053
:10286000EDE8F1E02230310509F040CF2091E80099
:10287000277F2093E8002091F1013091F201821727
:10288000930708F49C0140E02115310509F071C05F
:1028900041116FC08091E80082FDCDCF80912F0360
:1028A000811549F2853039F28091E80083FFF2CF3B
:1028B000C2CF8091EF019091F0012132310509F4EE
:1028C00044C02232310509F011CF8330910508F060
:1028D0000DCFFC01EE0FFF1FEA5CFE4F0190F0816F
:1028E000E02D8D5C9E4FDC018C9190E010C0282F74
:1028F00030E0823011F12330310568F4232BA9F444
:10290000E4E5F2E0E4918E2F90E0E4E5F2E0009758
:1029100009F4ECCEABCF09F0E9CEEAEFF1E0E491B7
:102920008E2F90E0EAEFF1E0F2CFEEE2F2E0E491F8
:102930008E2F90E0EEE2F2E0EACFE8E1F2E0E491FF
:102940008E2F90E0E8E1F2E0E2CF8330910508F0CD
:10295000CDCE880F991FFC01E45CFE4F0190F08101
:10296000E02D89E090E082CF82E190E0E8EEF1E0B6
:102970007DCF80912F03811509F45DCF853009F457
:102980005ACF8091E80083FD56CF8091E80082FD08
:1029900081CF8091E80080FF77CF4091F300809154
:1029A000F200942F2115310519F08830910550F06F
:1029B00041E0089709F040E08091E8008E7780932D
:1029C000E80062CF44914093F100319621503109E3
:1029D0000196E8CF803809F089CE8091E800877FA2
:1029E0008093E8008091E9018093F10075CE811118
:1029F0007DCE8091ED01182F823008F077CE809146
:102A0000E800877F8093E8001093E9016CDB1115E3
:102A1000D9F084E080932F0342E061EC81E033DB66
:102A200042E261EC84E02FDB42E261EC82E02BDBEE
:102A300042E260EC83E027DB80912F03843051F485
:102A400082E08093170152CE8091E30087FDE1CFB1
:102A500081E0E0CF81E0F5CFCF93C82F811599F0C9
:102A60008450813A90F4E2EEF1E088EE91E020812A
:102A7000C217C9F131968E179F07C9F76C2F80EEE8
:102A800091E04BD9A9DCCF9108958C2F805E8830DE
:102A900060F4C77021E001C0220FCA95EAF7809167
:102AA000AD03822B8093AD03EDCF8C2F855A8330FD
:102AB00028F48C2F8452990BE2D8E5CFEC2FE85AFA
:102AC000EB3148F4F0E0EE0FFF1FE855FE4F808138
:102AD0009181FCD8D8CF8C2F8D5C8331A0F661E03A
:102AE0008C2F9FD9D0CF6C2F80EE91E031D974DC40
:102AF000C5CF811561F1982F9450913A28F4682F31
:102B000080EE91E025D968CC982F905E983058F4EB
:102B1000982F81E091FD84E090FD880F92FD8295D1
:102B20000E94E903F0CF982F955A933018F480E073
:102B300090E0A5C8982F985A9B3118F480E090E057
:102B4000C5C8982F9D5C933110F460E06AC9089560
:102B50001F93CF93DF93182FEB017EDF209731F483
:102B6000812FC7DFDF91CF911F9108958FE99FE0FB
:102B70000197F1F700C000002197F0CF811531F0E7
:102B80009091AD03982B9093AD0326CC08958115B9
:102B900019F00E94E90320CC0895FF920F931F9330
:102BA000CF93DF93C62FD42FF22E8115A1F060931F
:102BB000A903DDD8809303029093040281E0C1FD54
:102BC00084E0C0FD880FC2FD8295D8DFCDB7DEB7A7
:102BD000E5E00C945C368091A90368132FC0009146
:102BE000030210910402C3D8801B910B883C91050D
:102BF00028F51D2F105ECD1791F0C77001E0802FD2
:102C000001C0880FCA95EAF7C2DF183040F48D2F53
:102C1000877001C0000F8A95EAF7802FAFDF60E070
:102C200070E08F2D95DF81E0D1FD84E0D0FD880F2D
:102C3000D2FD8295183050F6AADFC8CF81E0C1FDE1
:102C400084E0C0FD880FC2FD8295F6CF811531F07A
:102C50009091AF03982B9093AF03BECB089581154D
:102C600039F080959091AF0389238093AF03B4CB63
:102C700008958091A503811521F082E2F0DF109282
:102C8000A5030895CF93DF93AAE6B1E042E751E0B0
:102C900030E061E02D912F3F11F480E010C0E22F71
:102CA000E295EF70E05EF0E0808190E02F7002C06E
:102CB000959587952A95E2F780FDEFCF862F382BE3
:102CC000660F4A175B0731F780913403831317C0EF
:102CD000809132038115E9F0C0913003D091310326
:102CE00046D88C1B9D0B0597A0F0809134039091E2
:102CF0003303891380933303109232030AC0309355
:102D0000340381E08093320332D880933003909370
:102D10003103DF91CF9108950F931F93CF93DF93EA
:102D20008430D8F4611119C04830B8F490E1899F1B
:102D3000E0011124C40FD11DC40FD11DCE0189960D
:102D40000E94B635082FCE018A960E94B635902F84
:102D5000DF91CF911F910F91089580E090E0F8CF1F
:102D6000462F2091370330913803232B89F4703F8D
:102D700039F4603F69F480913503909136030895EA
:102D8000711106C0683020F4843010F460E0C4CFC4
:102D900080E090E00895CF92DF92FF920F931F930F
:102DA000CF93DF936C010091650480916404082B3C
:102DB000C3E0D0E010E0C8010C2E02C095958795C5
:102DC0000A94E2F780FD0CC02197A8F7F12C8F2D13
:102DD000DF91CF911F910F91FF90DF90CF900895D9
:102DE000FC2EB6018C2FBCDF0E94EE04019761F32C
:102DF000EECF1F93CF93DF93FC0127813085211500
:102E0000310591F48581C081D181811591F06115E1
:102E100081F0CE01C0DF182F682FCE010E9445033C
:102E2000BE01812F9DDF9C01C901DF91CF911F91D0
:102E30000895CE010E946803182FF2CFCF93DF933D
:102E4000EC01A9DFBE018CDF0E94EE04DF91CF917F
:102E50000895FC0184818115B1F0878190850097E8
:102E6000A1F00E94EE0492959F709630C9F088F40C
:102E7000925F9F70923038F491E0803F79F058F47F
:102E800091E0883E58F090E009C080819181D6DFC2
:102E9000EACF9A5FEECF91E0843FA9F7892F08959A
:102EA00091E0813F09F090E021E0883E08F020E0C9
:102EB000922BF4CF673423E072078105910528F443
:102EC000CB0187549F4F0C94B63580E0089585E27E
:102ED00090E00E94B635813069F486E290E00E946D
:102EE000B6358F3C39F487E290E00E94B63591E028
:102EF0008D3409F090E0892F81700895AAE0B0E048
:102F0000E4E8F7E10C943D36EEE1F2E080E5119261
:102F10008A95E9F7E5EBF3E088E311928A95E9F702
:102F20008EE1C82E82E0D82E95EBE92E93E0F92EA3
:102F300009E610E0F701C082D1824AE050E0B80112
:102F4000CE0101960E94A63588E09E012F5F3F4F7B
:102F5000F901D60101900D928A95E1F789859A854C
:102F6000F701828393838AE0C80ED11C87E0E80EC4
:102F7000F11C065F1F4F093B1105E1F62A96E8E0B8
:102F80000C945936AAE0B0E0E8ECF7E10C943D3639
:102F9000E0902401F090250181E0809324011092BB
:102FA000250110E088E0C82E83E0D82E00E011153E
:102FB00071F121E030E0402F60E0812FEDD90F5F0B
:102FC00082E0C80ED11C083091F71F5F143051F712
:102FD000FE013196DF018AE01D928A95E9F709E644
:102FE00010E0DE2ECF2E4AE050E0B8018D2D9C2D52
:102FF0000E94F035065F1F4F093B1105A1F7E092D3
:103000002401F09225012A96E8E00C945936F60145
:10301000859195919C01CFCFEF92FF920F931F93D3
:10302000CF93DF93062FF72EE82E122FC42FD0E078
:10303000C356DD4F9881911108C00E9463356FEF30
:1030400070E00E94FC34982F8883212F290F3327AA
:10305000331FC901959587950E94C006805887FD4A
:1030600081956E2D880F0E945E06602F7F2DCDB753
:10307000DEB7E6E00C945B3648E050E067E170E0D4
:1030800087E293E00E94C3351092A902089585E873
:10309000809327038091270190912801A091290115
:1030A0008093280390932903A0932A038FE78093AA
:1030B0002B038FEF80932C03DFCFA0E0B0E0E3E69B
:1030C000F8E10C943436C0906E02D0906F02E0901C
:1030D0007002F09071020E94C80F2B013C014B015D
:1030E0005C018C189D08AE08BF080E94C80FAB0198
:1030F000BC0140936E0250936F02809370027093F4
:103100007102A091DD02EDEDF2E08A2F90E02FEF49
:10311000C20ED21EE11CF11CC418D508E608F7083F
:10312000A91329C08093DD0280912703182F137003
:1031300019F0182F1695169590910E01923009F4FA
:10314000D5C548F591112FC010920F014093A502EB
:103150005093A6026093A7027093A80289E2EDED56
:10316000F2E0AAEAB2E001900D928A95E1F781E0DF
:1031700080930E0113C0218D328DC216D306E10457
:10318000F10420F481509F5F3296CACF280D391D7B
:10319000218F328FF8CF933009F4B1C5CDB7DEB7A8
:1031A000E1E10C94503690910D01191320C0837009
:1031B00020910C0130E091E08217130609F490E0B1
:1031C0009093110180912C0390911001981739F080
:1031D0008093100140E060E080E00E94600A1832B5
:1031E00088F4E12FF0E0E654F94C0C940F3591E0AF
:1031F000E7CF80911101811529F040E060E080E087
:103200000E94600A80E0A6C080910F010E94620ABD
:10321000C82F092F609128037091290380912A03F8
:103220000E94DC05F62EE72ED82ED0E00C1709F010
:1032300018F481E0083094C3FE01E65BFE4F808DF8
:1032400090911001892331F02D2D4E2D6F2DCE013F
:103250000E94D3092196EACF80910F010E94620A51
:10326000C82F092FE0902803F0902903D0912A035A
:10327000B7018D2F0E94DC05D62EC72EB82E609187
:103280002B036E0D7F2D8D2F0E94DC05F62EE72E71
:10329000A82ED0E00C1769F260F2FE01E65BFE4F4B
:1032A000908D80911001892359F02A2D4E2D6F2D7C
:1032B00090FD03C02B2D4C2D6D2DCE010E94D30906
:1032C0002196E8CF80910F010E94620AC82F092F32
:1032D000E0902903D0902A0360912B0380E40E94A0
:1032E0005E06F82ED0E00C1709F008F4A2CFFE011C
:1032F000E65BFE4F808D909110018923D1F0FE0195
:10330000EE0FFF1FE65BFE4F60856F9DB00111243D
:1033100095E0759567959A95E1F780912803680F78
:103320007E2D8D2D0E94DC05472F282FCE010E9477
:10333000D3092196D8CF81E197E00E941C0B0AC0E7
:1033400084E297E0FACF88E597E0F7CF8BE897E043
:103350000E94D40A90910F019F5F90930F018111F9
:10336000A6C482E080930E01809111018111E3C413
:10337000111509F4C2C480912703982F969596954C
:10338000923009F09DC4C0912A0380919B03823042
:1033900009F4A3C408F098C440E060E081119BC424
:1033A00020E040E06C2F80E090E00E94D30920E014
:1033B0004C2F60E081E090E00E94D30920E04C2F88
:1033C00060E082E090E00E94D30920E04C2F60E0B2
:1033D00083E090E00E94D30920E04C2F60E084E07D
:1033E00090E00E94D309DC2FD69520E04D2F6C2F62
:1033F00085E090E00E94D3092C2F40E060E086E059
:1034000090E00E94D30920E04D2F6C2F87E090E0E0
:103410000E94D309C3CE87EA97E09ACF82EC97E067
:103420000E94690A97CF8CED97E0FACF85EF97E07D
:1034300084CF87EF97E081CF80E098E07ECF8AE16C
:1034400098E0EECF8BE298E083CF87E498E080CFDE
:1034500087E598E0E5CF8AE698E00E945B0B7ACF9B
:1034600080E998E0FACF87EB98E0F7CF80910F01E1
:103470000E94620AC82F092F80912B036AE00E94E4
:10348000DC34682F21E0620F08F46FEF8091A50211
:103490009091A6020E946606F82ED0E0C01708F0B0
:1034A000C8CEFE01E65BFE4F808D9091100189230E
:1034B000D1F0FE01EE0FFF1FE65BFE4F918560919C
:1034C00028037091290380912A032F2D4C2F9430CB
:1034D00060F00E94ED080E94DC05262F472F682F20
:1034E000CE010E94D3092196D9CF0E94ED080E94F7
:1034F000DC05472F282FF4CFC0910F01C11119C04F
:1035000060912B0320E1620F08F46FEF8091A50218
:103510009091A6020E9466066AE070E00E94E8347C
:10352000892B39F488E00E94B70680930401109239
:1035300005018C2F0E94620AEC01909111019111FA
:1035400017C020910401309105012817310590F032
:103550002D17310578F4822F0E94D50989E08093D8
:1035600004011092050106C08C2F0E94D509CF5F7F
:10357000CD17D0F381E0D830F3C1C0910F01C11154
:1035800019C060912B0320E1620F08F46FEF809166
:10359000A5029091A6020E94660665E070E00E9476
:1035A000E834892B39F488E00E94B706809306013D
:1035B000109207018C2F0E94620AEC019091110178
:1035C000911117C02091060130910701281731058C
:1035D00088F22D17310570F6822F0E940F0A89E0BC
:1035E0008093060110920701C5CF8C2F0E940F0A0D
:1035F000CF5FCD17D0F3BECF84E099E09ECE8AE1B5
:1036000099E09BCE8BE399E098CEC0910F01C11158
:103610001EC0E0907202F09073020E94B70E4091BB
:103620002B0320E431E0241B31098E199F09281750
:10363000390768F488E00E94B70680930801109269
:1036400009010E94B70E80937202909373028C2F2F
:103650000E94620A092FC0910801D0910901C81780
:10366000D10508F4E6CDC917D10508F0E2CDFE0179
:10367000E65BFE4F808D90911001892309F4D9CD2E
:103680000E94A20681FD18C00E94A206F82E80E8C2
:103690000E94B7068158782F80912A036F2D0E94CF
:1036A000DC05472F282FCE010E94D30989E08093A3
:1036B000080110920901BDCD80E070E0F12CEECF41
:1036C00080918C0290918D02A0918E02B0918F0218
:1036D0004091A5025091A6026091A7027091A802A4
:1036E000481759076A077B0708F48CCD80911101B0
:1036F000811145C080910F010E94620A092FE82EB6
:10370000F12CE701CC0FDD1FCE0DDF1DCC58DD4FB6
:10371000E01608F45AC0083008F48BCD802F815091
:10372000990BEC01CC0FDD1FC80FD91FAE0167E765
:1037300072E084E792E00E948E350E94A206CC5887
:10374000DD4F81FF55C0188219821A820E945409E8
:10375000AB01BC018091A5029091A602A091A702A5
:10376000B091A802840F951FA61FB71F80938C02EB
:1037700090938D02A0938E02B0938F025ACD40E0B9
:1037800060E080E00E94600AC4E7D2E00E94A206E6
:1037900081FF0AC0188219821A8223968CE892E06F
:1037A0008C179D0799F7A6CF0E94A206082F80E8E4
:1037B0000E94B7068158782F602F80912A030E94BB
:1037C000DC05688379838A83E8CFF701E65BFE4FE7
:1037D000808D90911001892331F02A81498168817F
:1037E000C7010E94D30923968FEFE81AF80A90CFF9
:1037F0000E94A206F82E80E80E94B7068158782F12
:103800006F2D80912A030E94DC05688379838A8367
:103810009DCF80911101811529F040E060E080E0AA
:103820000E94600A80910F010E94620A392E8091E5
:10383000A5029091A602A091A702B091A802409182
:1038400094025091950260919602709197024817E8
:1038500059076A077B0708F080C0609128037091C0
:10386000290380912A030E94DC05862E672E782E7C
:10387000062FD72EC82E70E9E72E72E0F72EEAE465
:103880004E2EE1E05E2EC2E5D1E0F70181917F018D
:10389000972CA62CB82C811103C0912CA12CB12CF3
:1038A000F20181912F0190E0FC01E65BFE4F209137
:1038B0001001308D232309F05CC08A9190E0FC0157
:1038C000E65BFE4F20911001308D232309F04BC0A1
:1038D000F7018081829383E992E08E159F05A9F616
:1038E00080919302811103C0C12CD12C00E0809102
:1038F000100182FF12C02C2D4D2D602F83E090E02F
:103900000E94D3098091100182FF07C02C2D4D2DFC
:10391000602F84E090E00E94D3090E94A206837089
:1039200091E0811190E0909393020E945409AB01C1
:10393000BC018091A5029091A602A091A702B0912E
:10394000A802840F951FA61FB71F8093940290931F
:103950009502A0939602B093970281E0932D983040
:1039600008F4F8CC4FCC292D4A2D6B2D0E94D30999
:10397000AFCF292D4A2D6B2D0E94D3099ECF809168
:103980000F010E94620A4C0180911101811559F0CA
:1039900040E060E080E00E94600AE5EDF2E088E04F
:1039A00011928A95E9F780910F01811117C0C0919A
:1039B0009902D0919A020E94B70E8C1B9D0B21E0B8
:1039C0008931910508F420E020939802499730F05E
:1039D0000E94B70E8093990290939A025AE4C52EE2
:1039E00051E0D52E65EDE62E62E0F62EC2E5D1E07F
:1039F000F601A1906F01A81478F1A91468F5B12C13
:103A0000F501E65BFE4F808D90911001892321F135
:103A1000F701008125E5302F321B08F430E0732ECA
:103A2000509029032AEA200F08F42FEF822F880FE5
:103A3000820F60912A038E5F0E945E066AEA671910
:103A4000752D0E94DC05472F282FC5010E94D30940
:103A50008091980281110AC08FEFE81AF80ACC15FC
:103A6000DD0509F0C5CF81E0992D79CF31E0031B49
:103A700008F400E0F7010083EFCF70902A03C72C11
:103A8000D12CE601CC0FDD1FCC0DDD1DD695C795E1
:103A9000D695C7956C2E8FEF90E0B6010E94FC344E
:103AA000062F80911101811569F040E060E080E00F
:103AB0000E94600AE5EDF2E088E011928A95E9F74C
:103AC00010929C0280919B028F5F80939B029AE4EC
:103AD000A92E91E0B92E25EDE22E22E0F22E46012C
:103AE0008C1A9D0A80919C028115D1F1F701808189
:103AF000811541F0871530F490919B02901302C01C
:103B000081508083D501ED915D01EF3F99F0D701A0
:103B10002C91F0E0621660F12C9DC0012D9D900D5E
:103B20001124BE010E94E834462F20E060E0CF015E
:103B30000E94D3098FEFE81AF80A82E5A81681E0FF
:103B4000B80681F680919B02081302C010929B0276
:103B500080919C028F5F8D31D8F480939C0252CB70
:103B60000E946335853595400CF6F7017082CACF07
:103B700030E02C1B3D0B2C9FC0012D9F900D3C9FD6
:103B8000900D1124B4010E94E834262F472DCFCF89
:103B900010929C0237CB86E699E00E94A70BDACB05
:103BA00081E799E0FACF21E03091AA02321B08F4B4
:103BB00030E0832F62E879E00E94160CCBCB21E045
:103BC0003091AA02321B08F430E0832F67E979E0D4
:103BD000F3CF80911101811531F0EDE9F2E088E039
:103BE00011928A95E9F78CE098E1A7CBC0910F017B
:103BF000C11119C060912B0325E0620F08F46FEF2B
:103C00008091A5029091A6020E94660665E070E090
:103C10000E94E834892B39F488E00E94B70680932B
:103C20000A0110920B018C2F0E94620AEC01909104
:103C30001101911119C020910A0130910B0128172F
:103C4000310508F497CC2D17310508F093CC822F5D
:103C50000E942E0A89E080930A0110920B018ACCFF
:103C60008C2F0E942E0ACF5FCD17D0F383CC89EA28
:103C700099E063CB80910F010E94620A092FC82F3F
:103C8000D0E0C01708F0D5CAFE01EE0FFF1FEC0F01
:103C9000FD1FE15FFC4F6081718182810E94DC0524
:103CA000472F282FCE010E94D3092196EACF111564
:103CB00009F474CA80910E01823009F06FCA5BCB9F
:103CC000837009F06BCA5FCB833069F04C2F6C2F87
:103CD000843009F063CA8C2F03C040E06C2F80E071
:103CE0000E94600A5BCA4C2F60E0F9CF10930D016F
:103CF000837080930C010E94301183E039CA809157
:103D0000A9028111B9D9C090A502D090A602E09075
:103D1000A702F090A8020E94C80FDC01CB018C1909
:103D20009D09AE09BF094097A105B10508F436CA3F
:103D300010920E0133CA111509F430CA1CCBA0E150
:103D4000B0E0E5EAFEE10C943536FE013196DF0184
:103D500080E11D928A95E9F705E310E099EBA92E21
:103D6000B12C27E4422E23E0522E612C712C9E2E82
:103D70008F2E6201730181E14816510461047104C0
:103D80001CF080E1C82ED12CA601B501892D982DFB
:103D90000E94C335AC0CBD1C0D2C000C00084C1847
:103DA0005D08600870080150104019F76096E0E166
:103DB0000C9451366FEF85E290E00E94D2356FEFA0
:103DC00086E290E00E94D2356FEF87E290E00E9499
:103DD000D23560E088E290E00E94D235D3D8AFDFE0
:103DE00061E085E290E00E94D2356FEC86E290E0DF
:103DF0000E94D2356DE487E290E00C94D235A0E0C9
:103E0000B0E0E5E0FFE10C943C36EC0198819130A4
:103E100018F109F047C08981813059F48A812396CD
:103E200060E570E0893311F060E070E00E94A81551
:103E3000EDCF823029F48A8123960E942C15E6CF9B
:103E4000833029F48A8123960E947915DFCF84304C
:103E500041F022968111DACFCDB7DEB7E9E00C94BC
:103E600058368A81239620E030E09AE0482F40536C
:103E7000550B4A30510560F02115310559F3EFE932
:103E8000FFE03197F1F700C0000021503109F4CF75
:103E9000929FB001939F700D11249A01260F371F36
:103EA0008991E4CF2196E92FF0E0E857FD4F849106
:103EB000B82E292F26952695269530E0F901E85849
:103EC000FD4FE4909770F12C092E02C0F594E79411
:103ED0000A94E2F7F901E859FD4FC490D12C092E5C
:103EE00002C0D594C7940A94E2F7285A3D4FF901CD
:103EF000049110E002C0159507959A95E2F7E0FE4F
:103F000003C081EE0E942C15C0FE03C086EE0E9405
:103F10002C1560E070E08B2D0E94A815C0FE03C038
:103F200086EE0E947915E0FE03C081EE0E947915AD
:103F300000FF6CCF60E070E08CE278CF4F925F9230
:103F40006F927F928F929F92AF92BF92DF92EF9289
:103F5000FF920F931F93CF93DF9300D000D0CDB784
:103F6000DEB77C01FC018481811559F161E0C70154
:103F70000E94F9168C01F7014581411509F4CCC660
:103F800097578038910508F0BBC6003158F466E4B5
:103F900073E080E090E00E945A17A12CB12C4501FB
:103FA0008115B1F18091B003877059F0F7018581D7
:103FB000811539F08091670482FF03C082E00E947E
:103FC000CF030F900F900F900F90DF91CF911F9123
:103FD0000F91FF90EF90DF90BF90AF909F908F90E8
:103FE0007F906F905F904F90089587E4881683E0EC
:103FF0009806A104B104B1F2B401C5010E945A1798
:104000009FEF891A990AA90AB90A8111EECF0150C6
:104010000111EBCF8E010F5F1F4FF80184E0119269
:104020008A95E9F7B401C5010E945A178983811561
:1040300009F4B8CF240135019FEF491A590A690ADA
:10404000790A8130F9F4B201C3010E945A17D82EBF
:104050008A83811509F4A6CFB401C5016E5F7F4F35
:104060008F4F9F4F2D2D2150233078F423E0820E67
:10407000911CA11CB11C240135010E945A178B838D
:104080008115C9F1C801BBDE36C02D2D2550233066
:10409000A8F52401350123E0420E511C611C711C5E
:1040A0000E945A178B83811531F184E0880E911C90
:1040B000A11CB11CB201C3010E945A178C83811547
:1040C000C1F06B807C8081E068168FEF780610F07D
:1040D000762C612C8D2D863049F0873019F0C30184
:1040E0000E94E12BC3010E94112C03C0C3010E9456
:1040F000E12B24013501420153018FCF2D2D2B01DE
:104100003C012430C1F70E945A17D82E811509F4BA
:1041100049CFB401C5016D5F7F4F8F4F9F4F0E9404
:104120005A17811509F43ECF94E0890E911CA11C09
:10413000B11C24013501282F2150330B4FEF429F32
:10414000C001439F900D11242D2D2150330B820F60
:10415000931F009781F20197EFE9FFE03197F1F7A4
:1041600000C00000F6CF1092AD030E94F1030E9440
:10417000B70E88579C4E8093A6039093A70381E0C7
:104180008093A5030FCF023B82E51807C1F525EE0A
:1041900030E0277081E001C0880F2A95EAF7682F88
:1041A0002091A8033091A5033115D1F0411599F064
:1041B000282B2093A803F6CEF70186818031F8F4EE
:1041C000812F8F7190E08230910511F04297DECF00
:1041D00021EE30E0DECF809582238093A803E2CEEB
:1041E000322F362361F0982F909592239093A80355
:1041F0000E94E903F7018581811509F4D3CE8091EE
:10420000A503811509F4BEC0D090AD03B090AC03F6
:104210000E94B70E88579C4E8093A6039093A703E5
:10422000F7018581811509F4ADC08B2D8D298D791C
:1042300009F07FC01035D8F4103408F08EC0063E67
:10424000110509F441C0C8019052903208F08AC0AB
:104250008681803108F465C0802F90E01092AF0312
:104260008D329105E9F482E08093AF037FC0003E78
:1042700082E5180708F048C0003C82E5180720F5E1
:10428000003A82E51807E0F4003682E51807E0F40A
:10429000C801925580349105B8F01092AF03C8015F
:1042A0008E32910508F07BC08832910508F05CC021
:1042B0008E31910508F05AC004974A97A0F239C090
:1042C000043B82E5180749F7F7019581911509F438
:1042D00007C51092A903980130572332310508F021
:1042E000E6C484E090E00E94BE358093660490931B
:1042F0006704F801E150F047E232F10508F072C0BE
:10430000EE51F94C0C940F3509378CE7180728F457
:1043100007378CE71807C0F6C0CF0B378CE71807B4
:10432000D2CF812F8F71843179F2863161F410926E
:10433000AF030E9439168091AD039091A803892B99
:104340008093AD031FC00E9439168091AD039091F8
:10435000A803892B8093AD03B7CF8681803108F005
:104360007BCFB2CFC8017ACF8A9719F78091A80383
:10437000811531F08091AF0392E089278093AF03DC
:104380000E94EC11F7018581F801E851FC47E73004
:10439000F10508F099CFEC5FF84C0C940F358C3494
:1043A000910521F38D329240E0CF26E241EE61EE9D
:1043B0000E94CD15F7CD27E245EE65EEF9CF26E256
:1043C00041EE60EEF5CF27E245EE64EEF1CF26E256
:1043D00041EE62EEEDCF27E245EE66EEE9CF28E250
:1043E00041E0EBCF80916604816080936604609128
:1043F00066047091670484E090E00E94EC350E94AE
:104400003912D0CD80916704886080936704EFCF24
:10441000809166048260E9CF809166048460E5CF74
:10442000809166048860E1CF809167048160EDCF60
:10443000809167048260E9CF809166048061D5CF66
:10444000809166048062D1CF809166048064CDCF74
:104450000E943912809166048068C7CF80916604FB
:104460008C60C3CF809167048360CFCF8091660456
:104470008E7FBBCF80916704877FC7CF8091660412
:104480008D7FB3CF809166048B7FAFCF8091660420
:10449000877FABCF809167048E7FB7CF8091670411
:1044A0008D7FB3CF809166048F7E9FCF809166040D
:1044B0008F7D9BCF809166048F7B97CF0E943912AE
:1044C000809166048F7791CF80916604837F8DCF32
:1044D000809167048C7F99CF90916604892F8B7FA0
:1044E00092FF8460877F92FF88607FCF809167040E
:1044F000982F909590FB80F990FB81F986CF909151
:104500006604892F8F7B96FF80646FCF0E943912DB
:1045100090916604892F97FB87F9805866CF61E0F8
:104520008EE090E00E94D23562CF60E0F9CF9091AA
:104530006604892F8F7E94FF806157CF9091660427
:10454000892F8E7F90FF816050CF90916704892FD3
:10455000877F93FF886059CF8272F801E052F84755
:10456000EB30F10508F050C0E55FF84C0C940F35C6
:104570008091AD038272F801E054F847ED30F10507
:1045800008F042C0EA5EF84C0C940F350E94A00C73
:1045900009CD811511F10E94E80C04CD811511F1AE
:1045A0000E94070DFFCC811511F10E941C0DFACC61
:1045B000811511F10E94340DF5CC811511F10E9485
:1045C0004A0DF0CC0E94AA0C81E00E94CD09EACCF1
:1045D0000E94B70CF9CF8115F1F20E94DE0CE2CCFB
:1045E0008115F1F20E94FE0CDDCC8115F1F20E94E2
:1045F000100DD8CC8115F1F20E94280DD3CC811575
:10460000F1F20E94400DCECC07378CE71807E1F09D
:1046100008378CE7180719F19801205E32452032DF
:10462000310510F5911120C00F7181E001C0880F94
:104630000A95EAF7082F682F83E090E00E94D235B0
:10464000802F0E942503AECC81E0911551F00E948D
:10465000310343E062E081E00E948803A3CC82E062
:10466000F4CF0E943A03F5CF4091AB0380916504EB
:10467000282F20953FEF70E02423372321153105A3
:1046800019F048234093AB030B372CE7120741F492
:10469000911509F487CC0E9413030E94B60D82CCB9
:1046A000003482E5180708F04CC0003282E5180794
:1046B00008F04EC0103540F5103408F05CC091157C
:1046C00009F470C00A358CE7180709F4C5C008F072
:1046D000AAC001308CE7180709F4BCC003308CE78E
:1046E000180709F4B1C001151C4709F05BC00E940E
:1046F00039128FEF94E32CE0815090402040E1F795
:1047000000C000000E94D40F980130553230B8F636
:10471000980145E0369527954A95E1F7822F8F70ED
:104720002091AB0330E041E0082E01C0440F0A9411
:10473000EAF72423232B19F29111AFCF1092AD0386
:10474000CCC29801205C32452032310508F0B7CF49
:10475000802F8F712091AB0330E041E0082E01C023
:10476000440F0A94EAF72423232B09F4A8CF9115C8
:1047700009F418CC92CFF7018681803108F09FCFE1
:10478000911110C0212F2F7081E090E002C0880F9E
:10479000991F2A95E2F72091AB0382239323892B5B
:1047A00009F000CCF70187819085009709F458C083
:1047B0000E94EE04182F992EF701B580A680A294CE
:1047C0008FE0A8228091B003877001F1DB2CB11437
:1047D000F1F0892F807F803461F0812F805E8830F6
:1047E000A8F0892F807E803221F4123078F0A11455
:1047F00069F08091670482FF09C082E00E94CF03C4
:104800008091B0038770DD24D3948111D12CE92DE0
:10481000E295EF70892D803C08F093C0F0E0ED5DEB
:10482000F84C0C940F350B358CE71807B9F00C35A4
:104830001C4709F0B7CF80916704002482FF0394DE
:10484000802D0E94B511AECF6FEF7FEF80E090E03A
:104850000E94EC350E94571281E0F3CF80E0F1CF47
:10486000858100811181811569F0C8010E94CB16F4
:10487000D82E682FC8010E944503B8018D2D0E94D3
:10488000B01696CFC8010E946803D82EF6CF092D26
:104890000F70803110F00295007FB114B9F001154E
:1048A00069F0812F805E883010F0111109C080916D
:1048B000AD03802B8093AD030E94EC11812F3FC08C
:1048C0008091AF03802B8093AF03F6CF812F0E949E
:1048D00079150115B1F1812F805E883010F011112A
:1048E00004C0802F0E94E90306C000958091AF03A9
:1048F00080238093AF030E94EC1123C0092D0F7019
:10490000807F803211F00295007F113040F009F471
:1049100082C0B11409F48DC0A114A9F1CFCF809148
:10492000670482FD2CC0B11421F1011539F080918A
:10493000AD03802B8093AD030E94EC1180E00E94B8
:104940002C15D11409F4D4C08091B00380FDD0C0DF
:10495000F70115828695869586950E943103C701D9
:10496000EDDA8091B0038695869586950E943A038C
:10497000BFC080E00E947915011519F3B2CFB114C0
:1049800069F1A11004C0802F0E94BE15DACF8A2DD4
:10499000813089F48091AC03182F8023081789F2A5
:1049A0000E94B70E8093B3039093B403812F802BA2
:1049B0008093AC03C6CF853021F6802F0E94BE15B0
:1049C000802F0E94D80E8091AE03902F9823091754
:1049D00009F4B7CF802B8093AE03B3CFA11011C0E1
:1049E000802F0E94C715802F0E94D80E8091AE03A1
:1049F000902F982309F4A5CF009508230093AE03C8
:104A0000A0CF8A2D813009F09CCF8091AD03802307
:104A100009F497CFE5CF8A2DB11421F0863008F044
:104A200090CFB1CF853008F08CCF802F0E94C71572
:104A300088CFA114D1F3193349F48FEF97EE23E017
:104A4000815090402040E1F700C00000812F0E947B
:104A5000791577CF869586958370813060F009F05F
:104A600070CF812F992D9370B11002C080E090E03B
:104A70000E94660E66CF812F992D9370B11002C0EF
:104A800080E090E00E943F0E5CCF6B2D812F0E9452
:104A9000110F57CF8370E1F5B11028C0812F829597
:104AA00086958770880F880F412F4F70082E01C0A0
:104AB000440F0A94EAF7212F207114FF06C02FE05B
:104AC00001C0220F8A95EAF72095892D8695869553
:104AD0008370982F8230A1F08330B9F08091640404
:104AE000913059F0242B82230E9425030E94300E1E
:104AF00060E0C7010E94F91664CA842B822BF4CFB0
:104B0000242B809164048227EFCF822F842BECCF5B
:104B1000B11459F190FEEACF812F82958695877066
:104B2000880F880F412F4F70082E01C0440F0A9440
:104B3000EAF7212F207114FF06C02FE001C0220FD9
:104B40008A95EAF72095892D869586958370982F0A
:104B5000823091F08330A9F080916504913049F062
:104B6000242B82230E942803C1CF823008F4BECFB9
:104B7000D3CF842B822BF6CF242B80916504822700
:104B8000F1CF822F842BEECF8F70082FB11431F02C
:104B90000E943103812F0E94BE15A8CF812F0E9451
:104BA000C715802F0E943A03A1CF123F81F170F404
:104BB000103FC9F0113F91F0B11409F467C0A1147E
:104BC00009F461C0812F0E942C1590CF133F29F169
:104BD000143F91F78091670482FD2CC0892D8F715D
:104BE000B11401F317C08A2DB11479F0853008F0A3
:104BF0007DCF892D8F71282F81E001C0880F2A95E4
:104C0000EAF7909165048927ADCF8630F0CF8F7198
:104C1000B110C8CF0E94310369CF80E0B11409F40C
:104C2000A1CF892D8F71982F81E001C0880F9A95AF
:104C3000EAF798CFB114C1F08091B0038770843047
:104C400049F41092B0031092B1031092B203892D6F
:104C50008F71A8CF8A2D63E0853008F047CF892D6A
:104C60008F710E94C30E42CF8A2D853040F0109282
:104C7000B0031092B1031092B20364E0F0CF81E070
:104C80000E94CF0333CF892D8F71C4CFA114F9F2C5
:104C9000193349F48FEF97EE23E081509040204084
:104CA000E1F700C00000812F0E9479151FCF80918D
:104CB000AD0306312CE7120709F04ECC8A7A91E059
:104CC000811101C090E09093AA0365E3811101C0B6
:104CD00069E280EE91E00E948D0E0E94EC1162C9A3
:104CE00006318CE7180709F043CC8091AA0365E3ED
:104CF000811101C069E280EE91E00E94A80EEDCF23
:104D000003378CE7180769F48091A503811509F42E
:104D10002ACA0E94391646C903378CE7180709F4D6
:104D200041C9023A82E5180709F452CA08F02BCAB1
:104D3000C8019052903208F43FCA013E110509F4AF
:104D400047CA053E110522CA80919503803170F44F
:104D500080919403811551F0E09146032091450321
:104D60003091900340918F032E1301C00895BF012D
:104D700089E0E89FF0011124DF01A95BBC4F149684
:104D80008C911497811551F111968C911197831381
:104D900025C08C91841322C015968C911597811192
:104DA0001DC012968D919D91A0919103B091920397
:104DB0008A1B9B0B883C910588F4809195038F702A
:104DC000806180939503E35BFC4F80818F708061ED
:104DD00080838FE893E0B2D80C94C5036F5F7F4F58
:104DE000FB01E770C1CFAFE0B0E0E9EFF6E20C9471
:104DF00037368C0186E0F801DE011A9601900D929B
:104E00008A95E1F7F801F58084819FE8892E93E087
:104E1000992E60909303611017C0811591F0F114E1
:104E200009F43DC1C8010E942917811509F437C151
:104E300089E0F801AFE8B3E001900D928A95E1F7BF
:104E400083DFFF24F3945EC07080A280B380D09093
:104E500094032091910330919203A501421B530BBF
:104E6000D11409F4E3C0483C510508F08AC081150B
:104E700041F380919003C180E09095039E2D903185
:104E800008F060C0C8121DC080918F03871119C03F
:104E900020919603309197038781908528173907D1
:104EA00081F4F11049C08E2D8F708061809395033D
:104EB0008FE893E043D880919503F8018683F12C25
:104EC00021C0F11039C040E06C2D872D0E94A6034F
:104ED00040E06C2D872D0E94A603F82E8111EFCFA4
:104EE0008A859B850E941E17292F22952F7090344A
:104EF00070F49F70223098F09115A9F0F801968116
:104F0000903188F48F2D2F96EEE00C9453362A5F63
:104F10002F70223060F0C80111D8FD2CF3CF91150D
:104F200011F0811579F3805E883060F3F4CF803F13
:104F300048F3815F8330F9CF80919503816080933E
:104F40009503BDCFC8124DC080918F03871149C012
:104F50002091960330919703878190852817390710
:104F600009F03FC0F1103DC0E682C8010E949E1FBB
:104F700089E0F801AFE8B3E001900D928A95E1F77E
:104F800060CFE09095039E2D903150F48FE893E030
:104F90000E949E1FF40189E011928A95E9F78FCF54
:104FA000811509F44ECF909190038181981319C017
:104FB00080918F03871115C020919603309197033C
:104FC000878190852817390761F4F1100AC0E682BD
:104FD000C8010E949E1FF40189E011928A95E9F7A9
:104FE00030CFC8010E942917811509F458C0F11467
:104FF00009F455C08E2D803208F41ACF80918F03AA
:105000009091900389839A83AB82BC826D821E82C9
:10501000809195038F838091960390919703888761
:105020009987CE0101960E949E1F02CF483C5105F0
:1050300008F0B0CF811509F404CFF11481F19091FB
:1050400090038181981321C080918F0387111DC027
:10505000209196033091970387819085281739070F
:10506000A1F49091950390FD83CF903108F480CF07
:10507000892F9683907F903F09F477CF982F907F68
:10508000905F8F70892B868370CFC8010E9429178B
:105090008111CECE80919503816080939503C801E4
:1050A0000E949E1FCECEA2E1B0E0E9E5F8E20C94AA
:1050B00041360A871B872C873D874E875F87688B21
:1050C000798B8A8BCE010A968EDE81112EC02091BB
:1050D00045033091460389E0AE01465F5F4FFA0118
:1050E00049505109DA0101900D928A95E1F78E85B8
:1050F0008115D9F0822F90E08395877090E0AC0104
:1051000034171506E1F099E0929FD0011124A95BB4
:10511000BC4F9E012F5F3F4FF90101900D929A9570
:10512000E1F7409345030E94C503809146039091A7
:105130004503891311C06296E4E00C945D360E9429
:1051400039121092450310924603EFE8F3E089E02C
:1051500011928A95E9F7E9CF29E0829FC0011124D5
:10516000895B9C4F40DE811531F38091460390911D
:1051700047030196877080934603D7CFEF92FF9243
:105180000F931F93CF93DF9380916104E091050209
:10519000CDE0811130C0CDB7DEB7E6E00C945B36D0
:1051A000DE2FDF5FD0930502EE2EF12CCE9FF001B3
:1051B0001124E750FC4F84818115E1F087819085AF
:1051C000892B21F481859285019651F4008111810A
:1051D000228133814481558166817781808563DFB7
:1051E000CE9DF001CF9DF00D1124E750FC4F1482AD
:1051F0001092AF03ED2F80916104E81788F21092AE
:10520000610410920502C7CFA0E0B0E0EAE0F9E245
:105210000C943536C091F80397E0992E01E010E028
:105220008091F7038C1308C0A9DF0E94790DCDB7D8
:10523000DEB7E0E10C945136D0E0FE01EE0FFF1F27
:10524000E351FC4F80819181989ED001999EB00DD1
:105250001124AB54BC4F2D01FD01248121115BC0F1
:1052600070906104E9EFF3E060E070E0812C671575
:1052700008F04FC0A384B484D201CD90DD902FEF0D
:105280003FEF612C462D50E07601E60CF11CE60C58
:10529000F11CD701ED90FD90E114F10439F0AE144A
:1052A000BF0409F0A90163949A01ECCF2F3F3207A4
:1052B000B1F1D80101C0AA0F2A95EAF78A2A98010C
:1052C000062C02C0220F331F0A94E2F7A9014150B5
:1052D00051098416150611F52DE0269FF001279F30
:1052E000F00D1124E750FC4F989ED001999EB00D0F
:1052F0001124AB54BC4F12962D913D9127833087DA
:1053000024E02483108211828187928721E0119604
:105310002C930E948A0DC395C37082CF14826F5F55
:105320007F4F3D96A4CF10926204109263041092B6
:1053300026018091F7038093F8030E94790D1ECF18
:10534000ADE1B0E0E6EAF9E20C9433364B8B5C8BCE
:105350006D8B7E8B8F8B792E988F91111092AF036E
:10536000188A198A1A8A86E0FE017396DE011A9657
:1053700001900D928A95E1F76F888091670482FF12
:105380001FC00E94B70E2091B1033091B203821B5F
:10539000930B8838934138F08091B00382FD03C0AD
:1053A00082E00E94CF030E94B70E2091B303309198
:1053B000B403821B930B8838934110F00E94F103D1
:1053C0006114E1F06E867F8661E0CE010A960E944C
:1053D000F91661E0CE010A960E94F91661E0CE014D
:1053E0000A960E94F9165C0180E5A8168CE7B806BB
:1053F00089F4711421F181E0809326016E867F8605
:105400000A851B852C853D85A301688979898A8950
:105410004ADECAC081E5A8168CE7B80621F47114EB
:1054200071F081DFEBCF82E5A8168CE7B80639F47E
:10543000711429F0809126018111F3CFDCCF45EB67
:10544000E42E43E0F42E198E812C912C1401239428
:10545000F70160817181DD24DA94CD2C80E0282F62
:1054600030E0FB01E80FF11DE80FF11D4081518193
:105470004115510539F0A416B50609F096018F5F64
:105480006901EDCF10E09FEFC916DC0409F445C0B7
:10549000F701448110912601411110E0F701458088
:1054A0009681711409F401C1111509F4FEC041106F
:1054B00014C021E00C2C01C0220F0A94EAF7922BB1
:1054C00096832091F5033091F6032233310528F4B9
:1054D00022E32093F5031092F603910102C0220FFC
:1054E000331F8A95E2F7C9010197F7012681281732
:1054F000190699F4C0906204D0906304C114D104D9
:1055000009F456C00E94B70E8C199D09C39708F480
:105510004FC081E0F701848311E0898D812B898F51
:105520008FEF881A980A87E0E80EF11C88E0881649
:10553000910409F08DCF711409F40DC1898D811585
:1055400009F409C10E94B70E80936204909363042A
:1055500080916104883040F5982F9F5F909361049B
:1055600099E0FE013A969E012F5F3F4FD9010190CD
:105570000D929A95E1F76D827E822DE0829FC001A7
:10558000112487509C4F29E0AE014F5F5F4FFA0115
:10559000DC0101900D922A95E1F72FEF3FEFFC011E
:1055A00021873287A386B4866D96E2E10C944F364C
:1055B0002091F8038091F703422FE0E0F0E097E0BC
:1055C00051E0281709F446C0422E512CF201EE0F8B
:1055D000FF1FE351FC4FC080D1809C9DF0019D9D39
:1055E000F00D1124EB54FC4F608171816C8F7D8F25
:1055F000B0E030E0A0E0EC8DFD8DEA0FF11DEA0F88
:10560000F11D6081718161157105E1F0F701019073
:10561000F081E02DEA8FFB8F30E007C001E06E17CC
:105620007F0709F000E0B02B3F5FEA8DFB8DE30FB1
:10563000F11DE30FF11D0190F081E02D309771F71E
:10564000AF5FD9CFB11571F13A17B8F4F70191E016
:105650009483F7014093F803EE15FF0509F45DCF3D
:1056600090E0FC01EE0FFF1FE351FC4F808291821E
:10567000019683708093F70350CF9C9DF0019D9D10
:10568000F00D1124EB54FC4F5483EE15FF0509F384
:10569000241304C09A012395422F4370920123954D
:1056A00023708FCFE0E0F0E0F9CF292F41101FC029
:1056B000B10102C0660F771F8A95E2F7CB0101970F
:1056C0008217930771F010E0C10102C0880F991F83
:1056D000CA94E2F76C01C094F70186818C2186831D
:1056E0001CCF411589F3C4010E948A0DECCFA9019A
:1056F0000C2C02C0559547950A94E2F7C901019711
:1057000082239323892B21F540FF22C0F701828158
:105710009381892BC9F0FE01319687E011928A9519
:10572000E9F70E94B70E9C018B839C8384E08D83F4
:10573000F70192818381792F9887898709811A815E
:1057400044E05E816F81AFDCF7011582142DBCCF80
:10575000142F1170B9CF9091F8038091F703981727
:1057600031F052DD898D813009F41ECF47CE06DD40
:1057700010926204109263040E94790DF3CFA6E0A8
:10578000B0E0E5ECFBE20C9441360E94B70E8C01D0
:105790008091390390913A038017910771F0198233
:1057A0001A820E94B70EBC0149815A8180E090E0C4
:1057B000C7DD0093390310933A032696E4E00C9476
:1057C0005D36A6E0B0E0E7EEFBE20C9441368C01DA
:1057D00080933503109336031032B0F4C801805E15
:1057E0009109089728F066E276E10115110511F498
:1057F0006EEB75E1C8010E94F602802F0E942C1505
:105800002696E4E00C945D3680EF89838A830E94BB
:10581000B70E8160BC0149815A8181E091E090DD41
:10582000EFCFA6E0B0E0E7E1FCE20C9441368C015A
:1058300080933503109336031032B0F4802F0E940A
:105840007915C801805E9109089728F06FE276E12A
:105850000115110511F467EC75E1C8010E94F6020B
:105860002696E4E00C945D3680EF89838A830E945B
:10587000B70E8160BC0149815A8181E090E060DD12
:10588000EFCFCDB7DEB7AF970FB6F894DEBF0FBE40
:10589000CDBF85B7806885BF85B7806885BF84B771
:1058A000877F84BF0FB6F894A895809160008861C7
:1058B00080936000109260000FBE80E890E00FB609
:1058C000F89480936100909361000FBE81E0809313
:1058D00017018AED95E08093DE019093DF010E942D
:1058E0007E170E9412110E94C3108091E200846012
:1058F0008093E200789480912F03811599F0809134
:10590000E9001091EC008F7010FB112717F9182B8C
:105910001092E9008091E80083FD0E946C121F70D4
:105920001093E90082E084BD93E095BD9AEF97BDA6
:1059300080936E000E946717811102C00E94DA1ED8
:10594000AAE6B1E021E08D918F3F09F067C081E0C8
:10595000A237B807C1F7109233031092340380E0E6
:1059600090E00E94BE35833E9E4F21F40E9467174F
:1059700081112DC063EE7EEF80E090E00E94EC3557
:1059800060E082E090E00E94D23581E08093640480
:1059900061E083E090E00E94D23560E074E184E051
:1059A00090E00E94EC350E9447180E94DA1E60E0E9
:1059B00070E0AB018FE090E00E94E43560E070E0C1
:1059C000AB0183E190E00E94E4350E943C1882E044
:1059D00090E00E94B6358093060384E090E00E9438
:1059E000BE3580936604909367040E9442168FEF41
:1059F00096E721E0815090402040E1F700C0000090
:105A00000E9442168091330380FF1CC06FEF7FEF2E
:105A100080E090E00E94EC350E94D40FE82FE295E0
:105A2000EF70F0E041A18F70622F01C0660F8A9580
:105A3000EAF7962F9095942391A392A1862F892B14
:105A400082A385CF83E090E00E94B6350E942503B3
:105A5000809165040E94130380939B030E94540D60
:105A60001092AA0240E150E06FEF70E083EC92E008
:105A70000E949F351092DD0240E150E06FEF70E030
:105A800086EF92E00E949F3581E08093A90248E072
:105A900050E067E170E087E293E00E94A635109243
:105AA000A90280912703843010F40E94471888E1EE
:105AB00091E080933B0390933C037E018FEFE81AC3
:105AC000F80A80912F03853049F480912F038530A7
:105AD00009F459C10E9439120E94300E0E944216E8
